S00F00004C4344546573742E73726563A2
S11300000C942A000C943F000C943F000C943F0085
S11300100C943F000C943F000C943F000C943F0060
S11300200C943F000C943F000C943F000C943F0050
S11300300C943F000C943F000C943F000C943F0040
S11300400C943F000C943F000C943F000C943F0030
S11300500C943F0011241FBECFE5D8E0DEBFCDBF16
S113006010E0A0E6B0E0E2EFFAE002C005900D92E5
S1130070A83AB107D9F70E94D4020C9477050C94DE
S11300800000EF92FF920F931F93CF93DF93E82E1C
S113009040E061E082E00E94550441E062E082E0D9
S11300A00E945504C4E0D0E0F12C8701A7010C2E76
S11300B002C0559547950A94E2F741706C2F82E08F
S11300C00E9455042196C830D10579F741E060E0DB
S11300D082E00E94550462E070E080E090E00E94BB
S11300E06C0240E060E082E00E945504C4E0E12C30
S11300F0F12CA8010E2C02C0559547950A94E2F7FD
S113010041706C2F82E00E9455048FEFE81AF80AC0
S1130110CF5FC83071F741E060E082E00E9455048F
S113012062E070E080E090E00E946C0240E060E0F9
S113013082E00E945504DF91CF911F910F91FF90AF
S1130140EF900895EF92FF920F931F93CF93DF9355
S1130150E82E40E061E082E00E94550440E062E065
S113016082E00E945504C4E0D0E0F12C8701A7018D
S11301700C2E02C0559547950A94E2F741706C2FF6
S113018082E00E9455042196C830D10579F741E0F8
S113019060E082E00E94550462E070E080E090E05C
S11301A00E946C0240E060E082E00E945504C4E0DA
S11301B0E12CF12CA8010E2C02C0559547950A9408
S11301C0E2F741706C2F82E00E9455048FEFE81A29
S11301D0F80ACF5FC83071F741E060E082E00E9426
S11301E0550462E070E080E090E00E946C0240E020
S11301F060E082E00E945504DF91CF911F910F913E
S1130200FF90EF900895EF92FF920F931F93CF9377
S1130210DF9341E062E082E00E94CD0341E061E0CF
S113022082E00E94CD0341E060E082E00E94CD03C1
S113023061E082E00E94B10362E370E080E090E05C
S11302400E946C02809160008B7F886080936000C4
S113025082E20E94A200809160000E94A20061E0FC
S113026070E080E090E00E946C02809161000E9446
S1130270A20061E070E080E090E00E946C0281E006
S11302800E94A20062E070E080E090E00E946C02B4
S113029086E00E94A20062E070E080E090E00E94AC
S11302A06C0280E40E94A200C2E6D0E00F2EF2EAC3
S11302B0EF2EF0E0FF2EF02D0AC089910E9441003C
S11302C0C017D107D1F7E801E016F10621F08E013D
S11302D0085F1F4FF2CF80E80E94A200DF91CF9108
S11302E01F910F91FF90EF90089581E00E94A2006A
S11302F0089582E00E94A2000895813019F08230AE
S113030029F0089580E80E94A200089580EC0E94DC
S1130310A2000895813019F0823031F008958FE7FA
S1130320860F0E94A20008958FEB860F0E94A20000
S113033008958A3020F4805D0E94410008950E944F
S113034041000895BF92CF92DF92EF92FF920F93F4
S11303501F93CF93DF93EC01611148C0C880D9800B
S1130360EA80FB80C114D104E104F10421F480E0AB
S11303700E94990146C0D0E019E0C12FCD1B6C2F1B
S11303808AE00E94B1029B01AC01C701B6010E9440
S1130390E904232B242B252B29F1DA3090F56C2F3B
S11303A08AE00E94B1029B01AC01C701B6010E9420
S11303B0E904B62E072F182FD92F6C2F8AE00E943C
S11303C0B1029B01AC01C701B6010E94E904822F6E
S11303D00E949901C150CB2CD02EE12EFD2ECF3F8F
S11303E0F1F60FC0DF5FDA3041F60BC0613049F43B
S11303F08881882331F021960E9499018991811185
S1130400FBCFDF91CF911F910F91FF90EF90DF9081
S1130410CF90BF9008958CE10E94A200089588E1D6
S11304200E94A2000895CF93DF93882341F0D82F30
S1130430C0E084E10E94A200CF5FDC13FACFDF9119
S1130440CF910895CF93DF93882341F0D82FC0E054
S113045080E10E94A200CF5FDC13FACFDF91CF913D
S11304600895811106C0809161008D7F80936100A1
S113047005C0809161008260809361008091610079
S11304800E94A2000895811106C0809161008E7FB0
S11304908093610005C08091610081608093610058
S11304A0809161000E94A2000895811106C080918C
S11304B061008B7F8093610005C08091610084603E
S11304C080936100809161000E94A20008958830A9
S11304D010F40E94410008958F929F92AF92BF92B0
S11304E0CF92DF92EF92FF920F939B01AC0160EAEF
S11304F076E881E090E00E94D9046656794081094B
S1130500910929EB35E749E757E00E94160500E217
S11305100E944305822E932EA42EB52EB694A79442
S113052097948794B694A79497948794811491048C
S1130530A104B10461F080E090E0DC0100000196C8
S1130540A11DB11D88169906AA06BB06B9F70F911D
S1130550FF90EF90DF90CF90BF90AF909F908F90DF
S11305600895CF92DF92EF92FF92C82EF62F662362
S113057091F0E0E061E070E080E090E0D12CE12CCB
S1130580F12C9B01AC01C701B6010E94D904EF5FB5
S1130590FE13F7CF04C061E070E080E090E0FF90CC
S11305A0EF90DF90CF900895CF93DF9300D000D0E9
S11305B0CDB7DEB70E94030181E097E8A5E4B0E07F
S11305C089839A83AB83BC830E94750180E00E9477
S11305D0550260ED77E080E090E00E946C0281E0DB
S11305E00E94550268EE73E080E090E00E946C0285
S11305F080E00E94310280E00E94430268EE73E0D2
S113060080E090E00E946C0281E60E94990168EE0D
S113061073E080E090E00E946C0281E00E94670237
S113062068EE73E080E090E00E946C0261E082EA90
S113063090E00E94A20168EE73E080E090E00E94E6
S11306406C0265E082E00E948A0168EE73E080E05B
S113065090E00E946C0260E0CE0101960E94A2012B
S113066068EE73E080E090E00E946C0282E00E94F9
S11306707D0168EE73E080E090E00E946C0283E606
S11306800E94990168EE73E080E090E00E946C02A1
S113069010E10E940B0264EF71E080E090E00E94A0
S11306A06C021150B1F710E10E940F0264EF71E087
S11306B080E090E00E946C021150B1F781E00E944A
S11306C0310281E00E94430268EE73E080E090E032
S11306D00E946C0283E00E94130268EE73E080E0E3
S11306E090E00E946C0282E60E94990168EE73E039
S11306F080E090E00E946C0282E00E94220268EE98
S113070073E080E090E00E946C0286E60E9499010A
S113071068EE73E080E090E00E946C020E94790130
S113072068EE73E080E090E00E946C020E94750124
S113073068EE73E080E090E00E946C02812F0E94DA
S1130740670264EF71E080E090E00E946C021F5F3A
S11307501830A1F768EB7BE080E090E00E946C0227
S113076033CF613009F46FEF823061F018F48130D7
S113077031F011C0833049F0843051F00CC06ABBB1
S113078080E0089567BB80E0089564BB80E008952D
S113079061BB80E0089581E00895683008F07FC06F
S11307A0423008F07EC0823031F118F4813039F0E3
S11307B07AC08330E1F1843009F455C074C041112A
S11307C00DC09AB321E030E002C0220F331F6A95B6
S11307D0E2F7822F809589238ABB0AC02AB381E07D
S11307E090E002C0880F991F6A95E2F7822B8ABBBA
S11307F08ABB80E0089541110DC097B321E030E039
S113080002C0220F331F6A95E2F7822F8095892355
S113081087BB0AC027B381E090E002C0880F991F0C
S11308206A95E2F7822B87BB87BB80E0089541116C
S11308300DC094B321E030E002C0220F331F6A954B
S1130840E2F7822F8095892384BB0AC024B381E018
S113085090E002C0880F991F6A95E2F7822B84BB4F
S113086084BB80E0089541110DC091B321E030E0D4
S113087002C0220F331F6A95E2F7822F80958923E5
S113088081BB0AC021B381E090E002C0880F991FA8
S11308906A95E2F7822B81BB81BB80E0089582E0F8
S11308A0089583E0089581E00895683008F07BC0DE
S11308B0423008F07AC0823029F118F4813039F0DE
S11308C076C08330D1F1843009F452C070C0411134
S11308D00DC02BB381E090E002C0880F991F6A9588
S11308E0E2F7809582238BBB80E008952BB381E0EF
S11308F090E002C0880F991F6A95E2F7822B8BBBA8
S113090080E0089541110DC028B381E090E002C059
S1130910880F991F6A95E2F78095822388BB80E04F
S1130920089528B381E090E002C0880F991F6A956A
S1130930E2F7822B88BB80E0089541110DC025B3F6
S113094081E090E002C0880F991F6A95E2F78095D4
S1130950822385BB80E0089525B381E090E002C046
S1130960880F991F6A95E2F7822B85BB80E0089572
S113097041110DC022B381E090E002C0880F991F9D
S11309806A95E2F78095822382BB80E0089522B3C2
S113099081E090E002C0880F991F6A95E2F7822BEC
S11309A082BB80E0089582E0089583E0089581E0A9
S11309B00895DB018F939F930E940B05BF91AF9124
S11309C0A29F800D911DA39F900DB29F900D1124A5
S11309D00895A1E21A2EAA1BBB1BFD010DC0AA1F7C
S11309E0BB1FEE1FFF1FA217B307E407F50720F094
S11309F0A21BB30BE40BF50B661F771F881F991F0F
S1130A001A9469F760957095809590959B01AC0157
S1130A10BD01CF0108950E945F05A59F900DB49F6D
S1130A20900DA49F800D911D11240895E894DF93E7
S1130A30CF93FC01DB010E945F057F936F93E90173
S1130A409A01AC01BF93AF933F932F93DF010E94B0
S1130A505F0526F46C1B7D0B820B930B9E01EB014F
S1130A60FC010E946E05AF91BF912F913F910E94AE
S1130A706E05BE01CF01F9012F913F91CF91DF9116
S1130A80089597FB10F8169400080F93083098F017
S1130A900850232F342F452F562F672F782F892F57
S1130AA0902DF4CF059497958795779567955795ED
S1130AB04795379527950A95AAF70F910895A29F10
S1130AC0B001B39FC001A39F700D811D1124911D1E
S1130AD0B29F700D811D1124911D08950E945F0520
S1130AE0460F571FC81FD91F08F431960895F8946C
S1050AF0FFCF32
S1130AF2280F000A1F1F0E040000040E151504041B
S1130B0200000E1F1F1F000E000000040E1F0E0423
S1130B120000040E1F1B11000000111B0E040E1B0B
S1130B2211001F15151F15151F000E1D191F0E008C
S10B0B321F00546573740000F8
S9030000FC
